:020000020000FC
:0200000002C03C
:10000400AFC00FE90DBFF8940CE1009360000093BA
:10001400610003E007BB0EE108BB379801E003BFB2
:1000240002E40FBD0EE706BF00E20BBF0CE105BB07
:1000340019D0789400C02196CD23CF3F21F4F394B6
:100044000F2D0F3F61F0009160000C31A1F37CD0C3
:1000540010916100011791F000936100ECCF02D080
:1000640005D0E9CFC0E0DC2FFC2E08950F9300E308
:1000740005BF889500E005BF0F910895006802FF51
:1000840005C003FF06C004FF07C0D5CF046080E0AD
:1000940005C0086082E002C0006184E005D016D08B
:1000A4000F7700936000C7CF1F93E199FECF8EBBFB
:1000B400E09A1DB3109363008395E199FECF8EBB44
:1000C400E09A1DB3109364001F9108950F9324D0F8
:1000D4000091630006D00091640003D023D00F91F7
:1000E40008950093620005D000916200009501D04C
:1000F40008951F9318E0069510F00BD001C004D0AA
:100104001A95C9F71F9108950DD010D00FD00ED0B5
:10011400089508D00BD00895C1980FD00ED0C19A7D
:100124000CD00895C19802D0C19A089597E08FEF3A
:100134008A95F1F79A95D9F7089599E38FEF8A95FF
:10014400F1F79A95D9F7089595E09F939DEF8EEF77
:100154008A95F1F79A95D9F79F919A95B1F70895F1
:100164000F930091600007FD06C00FB70F9306B30D
:0E0174000C71009360000F910FBF0F91189552
:00000001FF
